{"abi":[{"type":"function","name":"campaigns","inputs":[{"name":"","type":"uint256","internalType":"uint256"}],"outputs":[{"name":"owner","type":"address","internalType":"address"},{"name":"title","type":"string","internalType":"string"},{"name":"description","type":"string","internalType":"string"},{"name":"target","type":"uint256","internalType":"uint256"},{"name":"deadline","type":"uint256","internalType":"uint256"},{"name":"amountCollected","type":"uint256","internalType":"uint256"}],"stateMutability":"view"},{"type":"function","name":"numberOfCampaigns","inputs":[],"outputs":[{"name":"","type":"uint256","internalType":"uint256"}],"stateMutability":"view"}],"bytecode":{"object":"0x608060405234801561001057600080fd5b50610468806100206000396000f3fe608060405234801561001057600080fd5b50600436106100365760003560e01c806307ca140d1461003b578063141961bc14610059575b600080fd5b61004361008e565b6040516100509190610219565b60405180910390f35b610073600480360381019061006e9190610265565b610094565b60405161008596959493929190610363565b60405180910390f35b60015481565b60006020528060005260406000206000915090508060000160009054906101000a900473ffffffffffffffffffffffffffffffffffffffff16908060010180546100dd90610401565b80601f016020809104026020016040519081016040528092919081815260200182805461010990610401565b80156101565780601f1061012b57610100808354040283529160200191610156565b820191906000526020600020905b81548152906001019060200180831161013957829003601f168201915b50505050509080600201805461016b90610401565b80601f016020809104026020016040519081016040528092919081815260200182805461019790610401565b80156101e45780601f106101b9576101008083540402835291602001916101e4565b820191906000526020600020905b8154815290600101906020018083116101c757829003601f168201915b5050505050908060030154908060040154908060050154905086565b6000819050919050565b61021381610200565b82525050565b600060208201905061022e600083018461020a565b92915050565b600080fd5b61024281610200565b811461024d57600080fd5b50565b60008135905061025f81610239565b92915050565b60006020828403121561027b5761027a610234565b5b600061028984828501610250565b91505092915050565b600073ffffffffffffffffffffffffffffffffffffffff82169050919050565b60006102bd82610292565b9050919050565b6102cd816102b2565b82525050565b600081519050919050565b600082825260208201905092915050565b60005b8381101561030d5780820151818401526020810190506102f2565b60008484015250505050565b6000601f19601f8301169050919050565b6000610335826102d3565b61033f81856102de565b935061034f8185602086016102ef565b61035881610319565b840191505092915050565b600060c08201905061037860008301896102c4565b818103602083015261038a818861032a565b9050818103604083015261039e818761032a565b90506103ad606083018661020a565b6103ba608083018561020a565b6103c760a083018461020a565b979650505050505050565b7f4e487b7100000000000000000000000000000000000000000000000000000000600052602260045260246000fd5b6000600282049050600182168061041957607f821691505b60208210810361042c5761042b6103d2565b5b5091905056fea2646970667358221220bf985e13cade021c3e2d55d8652209c9b0ba384cbdaaf293e0dc925f02fb1b5264736f6c63430008130033","linkReferences":{}},"methodIdentifiers":{"campaigns(uint256)":"141961bc","numberOfCampaigns()":"07ca140d"},"id":0}