{"abi":[{"type":"function","name":"campaigns","inputs":[{"name":"","type":"uint256","internalType":"uint256"}],"outputs":[{"name":"owner","type":"address","internalType":"address"},{"name":"title","type":"string","internalType":"string"},{"name":"description","type":"string","internalType":"string"},{"name":"target","type":"uint256","internalType":"uint256"},{"name":"deadline","type":"uint256","internalType":"uint256"},{"name":"amountCollected","type":"uint256","internalType":"uint256"}],"stateMutability":"view"},{"type":"function","name":"createCampaign","inputs":[{"name":"_title","type":"string","internalType":"string"},{"name":"_description","type":"string","internalType":"string"},{"name":"_target","type":"uint256","internalType":"uint256"},{"name":"_deadline","type":"uint256","internalType":"uint256"}],"outputs":[{"name":"","type":"uint256","internalType":"uint256"}],"stateMutability":"nonpayable"},{"type":"function","name":"donateToCampaign","inputs":[{"name":"_id","type":"uint256","internalType":"uint256"}],"outputs":[],"stateMutability":"payable"},{"type":"function","name":"getCampaigns","inputs":[],"outputs":[{"name":"","type":"tuple[]","internalType":"struct CreateCampaign.Campaign[]","components":[{"name":"owner","type":"address","internalType":"address"},{"name":"title","type":"string","internalType":"string"},{"name":"description","type":"string","internalType":"string"},{"name":"target","type":"uint256","internalType":"uint256"},{"name":"deadline","type":"uint256","internalType":"uint256"},{"name":"amountCollected","type":"uint256","internalType":"uint256"},{"name":"donators","type":"address[]","internalType":"address[]"},{"name":"donations","type":"uint256[]","internalType":"uint256[]"}]}],"stateMutability":"view"},{"type":"function","name":"getDonators","inputs":[{"name":"_id","type":"uint256","internalType":"uint256"}],"outputs":[{"name":"","type":"address[]","internalType":"address[]"},{"name":"","type":"uint256[]","internalType":"uint256[]"}],"stateMutability":"view"},{"type":"function","name":"numberOfCampaigns","inputs":[],"outputs":[{"name":"","type":"uint256","internalType":"uint256"}],"stateMutability":"view"}],"bytecode":{"object":"0x608060405234801561001057600080fd5b5061176e806100206000396000f3fe6080604052600436106100555760003560e01c806307ca140d1461005a5780630fa91fa914610085578063141961bc146100c357806342a4fda814610105578063a318f26914610121578063a6b036331461015e575b600080fd5b34801561006657600080fd5b5061006f610189565b60405161007c9190610a7a565b60405180910390f35b34801561009157600080fd5b506100ac60048036038101906100a79190610ad5565b61018f565b6040516100ba929190610cb0565b60405180910390f35b3480156100cf57600080fd5b506100ea60048036038101906100e59190610ad5565b6101a4565b6040516100fc96959493929190610d86565b60405180910390f35b61011f600480360381019061011a9190610ad5565b610310565b005b34801561012d57600080fd5b5061014860048036038101906101439190610f2a565b61031c565b6040516101559190610a7a565b60405180910390f35b34801561016a57600080fd5b50610173610335565b6040516101809190611278565b60405180910390f35b60015481565b60608061019b83610344565b91509150915091565b60006020528060005260406000206000915090508060000160009054906101000a900473ffffffffffffffffffffffffffffffffffffffff16908060010180546101ed906112c9565b80601f0160208091040260200160405190810160405280929190818152602001828054610219906112c9565b80156102665780601f1061023b57610100808354040283529160200191610266565b820191906000526020600020905b81548152906001019060200180831161024957829003601f168201915b50505050509080600201805461027b906112c9565b80601f01602080910402602001604051908101604052809291908181526020018280546102a7906112c9565b80156102f45780601f106102c9576101008083540402835291602001916102f4565b820191906000526020600020905b8154815290600101906020018083116102d757829003601f168201915b5050505050908060030154908060040154908060050154905086565b61031981610454565b50565b600061032b33868686866105b7565b9050949350505050565b606061033f6106c8565b905090565b606080600080848152602001908152602001600020600601600080858152602001908152602001600020600701818054806020026020016040519081016040528092919081815260200182805480156103f257602002820191906000526020600020905b8160009054906101000a900473ffffffffffffffffffffffffffffffffffffffff1673ffffffffffffffffffffffffffffffffffffffff16815260200190600101908083116103a8575b505050505091508080548060200260200160405190810160405280929190818152602001828054801561044457602002820191906000526020600020905b815481526020019060010190808311610430575b5050505050905091509150915091565b60003490506000806000848152602001908152602001600020905080600601339080600181540180825580915050600190039060005260206000200160009091909190916101000a81548173ffffffffffffffffffffffffffffffffffffffff021916908373ffffffffffffffffffffffffffffffffffffffff1602179055508060070182908060018154018082558091505060019003906000526020600020016000909190919091505560008160000160009054906101000a900473ffffffffffffffffffffffffffffffffffffffff1673ffffffffffffffffffffffffffffffffffffffff16836040516105499061132b565b60006040518083038185875af1925050503d8060008114610586576040519150601f19603f3d011682016040523d82523d6000602084013e61058b565b606091505b5050905080156105b157828260050160008282546105a9919061136f565b925050819055505b50505050565b60004282116105fb576040517f08c379a00000000000000000000000000000000000000000000000000000000081526004016105f2906113ef565b60405180910390fd5b600080600060015481526020019081526020016000209050868160000160006101000a81548173ffffffffffffffffffffffffffffffffffffffff021916908373ffffffffffffffffffffffffffffffffffffffff1602179055508581600101908161066791906115bb565b508481600201908161067991906115bb565b5083816003018190555082816004018190555060008160050181905550600160008154809291906106a99061168d565b9190505550600180546106bc91906116d5565b91505095945050505050565b6060600060015467ffffffffffffffff8111156106e8576106e7610dff565b5b60405190808252806020026020018201604052801561072157816020015b61070e610a06565b8152602001906001900390816107065790505b50905060005b6001548110156109fe57600080828152602001908152602001600020604051806101000160405290816000820160009054906101000a900473ffffffffffffffffffffffffffffffffffffffff1673ffffffffffffffffffffffffffffffffffffffff1673ffffffffffffffffffffffffffffffffffffffff1681526020016001820180546107b5906112c9565b80601f01602080910402602001604051908101604052809291908181526020018280546107e1906112c9565b801561082e5780601f106108035761010080835404028352916020019161082e565b820191906000526020600020905b81548152906001019060200180831161081157829003601f168201915b50505050508152602001600282018054610847906112c9565b80601f0160208091040260200160405190810160405280929190818152602001828054610873906112c9565b80156108c05780601f10610895576101008083540402835291602001916108c0565b820191906000526020600020905b8154815290600101906020018083116108a357829003601f168201915b505050505081526020016003820154815260200160048201548152602001600582015481526020016006820180548060200260200160405190810160405280929190818152602001828054801561096c57602002820191906000526020600020905b8160009054906101000a900473ffffffffffffffffffffffffffffffffffffffff1673ffffffffffffffffffffffffffffffffffffffff1681526020019060010190808311610922575b50505050508152602001600782018054806020026020016040519081016040528092919081815260200182805480156109c457602002820191906000526020600020905b8154815260200190600101908083116109b0575b5050505050815250508282815181106109e0576109df611709565b5b602002602001018190525080806109f69061168d565b915050610727565b508091505090565b604051806101000160405280600073ffffffffffffffffffffffffffffffffffffffff168152602001606081526020016060815260200160008152602001600081526020016000815260200160608152602001606081525090565b6000819050919050565b610a7481610a61565b82525050565b6000602082019050610a8f6000830184610a6b565b92915050565b6000604051905090565b600080fd5b600080fd5b610ab281610a61565b8114610abd57600080fd5b50565b600081359050610acf81610aa9565b92915050565b600060208284031215610aeb57610aea610a9f565b5b6000610af984828501610ac0565b91505092915050565b600081519050919050565b600082825260208201905092915050565b6000819050602082019050919050565b600073ffffffffffffffffffffffffffffffffffffffff82169050919050565b6000610b5982610b2e565b9050919050565b610b6981610b4e565b82525050565b6000610b7b8383610b60565b60208301905092915050565b6000602082019050919050565b6000610b9f82610b02565b610ba98185610b0d565b9350610bb483610b1e565b8060005b83811015610be5578151610bcc8882610b6f565b9750610bd783610b87565b925050600181019050610bb8565b5085935050505092915050565b600081519050919050565b600082825260208201905092915050565b6000819050602082019050919050565b610c2781610a61565b82525050565b6000610c398383610c1e565b60208301905092915050565b6000602082019050919050565b6000610c5d82610bf2565b610c678185610bfd565b9350610c7283610c0e565b8060005b83811015610ca3578151610c8a8882610c2d565b9750610c9583610c45565b925050600181019050610c76565b5085935050505092915050565b60006040820190508181036000830152610cca8185610b94565b90508181036020830152610cde8184610c52565b90509392505050565b610cf081610b4e565b82525050565b600081519050919050565b600082825260208201905092915050565b60005b83811015610d30578082015181840152602081019050610d15565b60008484015250505050565b6000601f19601f8301169050919050565b6000610d5882610cf6565b610d628185610d01565b9350610d72818560208601610d12565b610d7b81610d3c565b840191505092915050565b600060c082019050610d9b6000830189610ce7565b8181036020830152610dad8188610d4d565b90508181036040830152610dc18187610d4d565b9050610dd06060830186610a6b565b610ddd6080830185610a6b565b610dea60a0830184610a6b565b979650505050505050565b600080fd5b600080fd5b7f4e487b7100000000000000000000000000000000000000000000000000000000600052604160045260246000fd5b610e3782610d3c565b810181811067ffffffffffffffff82111715610e5657610e55610dff565b5b80604052505050565b6000610e69610a95565b9050610e758282610e2e565b919050565b600067ffffffffffffffff821115610e9557610e94610dff565b5b610e9e82610d3c565b9050602081019050919050565b82818337600083830152505050565b6000610ecd610ec884610e7a565b610e5f565b905082815260208101848484011115610ee957610ee8610dfa565b5b610ef4848285610eab565b509392505050565b600082601f830112610f1157610f10610df5565b5b8135610f21848260208601610eba565b91505092915050565b60008060008060808587031215610f4457610f43610a9f565b5b600085013567ffffffffffffffff811115610f6257610f61610aa4565b5b610f6e87828801610efc565b945050602085013567ffffffffffffffff811115610f8f57610f8e610aa4565b5b610f9b87828801610efc565b9350506040610fac87828801610ac0565b9250506060610fbd87828801610ac0565b91505092959194509250565b600081519050919050565b600082825260208201905092915050565b6000819050602082019050919050565b600082825260208201905092915050565b600061101182610cf6565b61101b8185610ff5565b935061102b818560208601610d12565b61103481610d3c565b840191505092915050565b600082825260208201905092915050565b600061105b82610b02565b611065818561103f565b935061107083610b1e565b8060005b838110156110a15781516110888882610b6f565b975061109383610b87565b925050600181019050611074565b5085935050505092915050565b600082825260208201905092915050565b60006110ca82610bf2565b6110d481856110ae565b93506110df83610c0e565b8060005b838110156111105781516110f78882610c2d565b975061110283610c45565b9250506001810190506110e3565b5085935050505092915050565b6000610100830160008301516111366000860182610b60565b506020830151848203602086015261114e8282611006565b915050604083015184820360408601526111688282611006565b915050606083015161117d6060860182610c1e565b5060808301516111906080860182610c1e565b5060a08301516111a360a0860182610c1e565b5060c083015184820360c08601526111bb8282611050565b91505060e083015184820360e08601526111d582826110bf565b9150508091505092915050565b60006111ee838361111d565b905092915050565b6000602082019050919050565b600061120e82610fc9565b6112188185610fd4565b93508360208202850161122a85610fe5565b8060005b85811015611266578484038952815161124785826111e2565b9450611252836111f6565b925060208a0199505060018101905061122e565b50829750879550505050505092915050565b600060208201905081810360008301526112928184611203565b905092915050565b7f4e487b7100000000000000000000000000000000000000000000000000000000600052602260045260246000fd5b600060028204905060018216806112e157607f821691505b6020821081036112f4576112f361129a565b5b50919050565b600081905092915050565b50565b60006113156000836112fa565b915061132082611305565b600082019050919050565b600061133682611308565b9150819050919050565b7f4e487b7100000000000000000000000000000000000000000000000000000000600052601160045260246000fd5b600061137a82610a61565b915061138583610a61565b925082820190508082111561139d5761139c611340565b5b92915050565b7f446561646c696e65206d75737420626520696e20667574757265000000000000600082015250565b60006113d9601a83610d01565b91506113e4826113a3565b602082019050919050565b60006020820190508181036000830152611408816113cc565b9050919050565b60008190508160005260206000209050919050565b60006020601f8301049050919050565b600082821b905092915050565b6000600883026114717fffffffffffffffffffffffffffffffffffffffffffffffffffffffffffffffff82611434565b61147b8683611434565b95508019841693508086168417925050509392505050565b6000819050919050565b60006114b86114b36114ae84610a61565b611493565b610a61565b9050919050565b6000819050919050565b6114d28361149d565b6114e66114de826114bf565b848454611441565b825550505050565b600090565b6114fb6114ee565b6115068184846114c9565b505050565b5b8181101561152a5761151f6000826114f3565b60018101905061150c565b5050565b601f82111561156f576115408161140f565b61154984611424565b81016020851015611558578190505b61156c61156485611424565b83018261150b565b50505b505050565b600082821c905092915050565b600061159260001984600802611574565b1980831691505092915050565b60006115ab8383611581565b9150826002028217905092915050565b6115c482610cf6565b67ffffffffffffffff8111156115dd576115dc610dff565b5b6115e782546112c9565b6115f282828561152e565b600060209050601f8311600181146116255760008415611613578287015190505b61161d858261159f565b865550611685565b601f1984166116338661140f565b60005b8281101561165b57848901518255600182019150602085019450602081019050611636565b868310156116785784890151611674601f891682611581565b8355505b6001600288020188555050505b505050505050565b600061169882610a61565b91507fffffffffffffffffffffffffffffffffffffffffffffffffffffffffffffffff82036116ca576116c9611340565b5b600182019050919050565b60006116e082610a61565b91506116eb83610a61565b925082820390508181111561170357611702611340565b5b92915050565b7f4e487b7100000000000000000000000000000000000000000000000000000000600052603260045260246000fdfea26469706673582212205ee2949d93edc62ba0c950a082acd4d61b6974a8941a542167056d357da708af64736f6c63430008130033","linkReferences":{}},"methodIdentifiers":{"campaigns(uint256)":"141961bc","createCampaign(string,string,uint256,uint256)":"a318f269","donateToCampaign(uint256)":"42a4fda8","getCampaigns()":"a6b03633","getDonators(uint256)":"0fa91fa9","numberOfCampaigns()":"07ca140d"},"id":1}